{
	"MyContract.sol": {
		"MyContract": {
			"abi": [
				{
					"inputs": [],
					"stateMutability": "nonpayable",
					"type": "constructor"
				},
				{
					"inputs": [
						{
							"internalType": "uint256",
							"name": "_id",
							"type": "uint256"
						},
						{
							"internalType": "string",
							"name": "_title",
							"type": "string"
						},
						{
							"internalType": "string",
							"name": "_author",
							"type": "string"
						}
					],
					"name": "addBook",
					"outputs": [],
					"stateMutability": "nonpayable",
					"type": "function"
				},
				{
					"inputs": [
						{
							"internalType": "uint256",
							"name": "_id",
							"type": "uint256"
						},
						{
							"internalType": "string",
							"name": "_title",
							"type": "string"
						},
						{
							"internalType": "string",
							"name": "_author",
							"type": "string"
						}
					],
					"name": "addMyBook",
					"outputs": [],
					"stateMutability": "nonpayable",
					"type": "function"
				},
				{
					"inputs": [
						{
							"internalType": "uint256",
							"name": "",
							"type": "uint256"
						}
					],
					"name": "books",
					"outputs": [
						{
							"internalType": "string",
							"name": "title",
							"type": "string"
						},
						{
							"internalType": "string",
							"name": "author",
							"type": "string"
						}
					],
					"stateMutability": "view",
					"type": "function"
				},
				{
					"inputs": [
						{
							"internalType": "address",
							"name": "",
							"type": "address"
						},
						{
							"internalType": "uint256",
							"name": "",
							"type": "uint256"
						}
					],
					"name": "myBooks",
					"outputs": [
						{
							"internalType": "string",
							"name": "title",
							"type": "string"
						},
						{
							"internalType": "string",
							"name": "author",
							"type": "string"
						}
					],
					"stateMutability": "view",
					"type": "function"
				}
			],
			"devdoc": {
				"kind": "dev",
				"methods": {},
				"version": 1
			},
			"evm": {
				"assembly": "    /* \"MyContract.sol\":60:802  contract MyContract {\r... */\n  mstore(0x40, 0x80)\n    /* \"MyContract.sol\":320:427  constructor() {\r... */\n  callvalue\n  dup1\n  iszero\n  tag_1\n  jumpi\n  0x00\n  dup1\n  revert\ntag_1:\n  pop\n    /* \"MyContract.sol\":345:362  names[1] = \"Adam\" */\n  mload(0x40)\n  dup1\n  0x40\n  add\n  0x40\n  mstore\n  dup1\n  0x04\n  dup2\n  mstore\n  0x20\n  add\n  0x4164616d00000000000000000000000000000000000000000000000000000000\n  dup2\n  mstore\n  pop\n    /* \"MyContract.sol\":345:350  names */\n  0x00\n    /* \"MyContract.sol\":345:353  names[1] */\n  dup1\n    /* \"MyContract.sol\":351:352  1 */\n  0x01\n    /* \"MyContract.sol\":345:353  names[1] */\n  dup2\n  mstore\n  0x20\n  add\n  swap1\n  dup2\n  mstore\n  0x20\n  add\n  0x00\n  keccak256\n    /* \"MyContract.sol\":345:362  names[1] = \"Adam\" */\n  swap1\n  dup1\n  mload\n  swap1\n  0x20\n  add\n  swap1\n  tag_4\n  swap3\n  swap2\n  swap1\n  tag_5\n  jump\t// in\ntag_4:\n  pop\n    /* \"MyContract.sol\":373:391  names[2] = \"Bruce\" */\n  mload(0x40)\n  dup1\n  0x40\n  add\n  0x40\n  mstore\n  dup1\n  0x05\n  dup2\n  mstore\n  0x20\n  add\n  0x4272756365000000000000000000000000000000000000000000000000000000\n  dup2\n  mstore\n  pop\n    /* \"MyContract.sol\":373:378  names */\n  0x00\n    /* \"MyContract.sol\":373:381  names[2] */\n  dup1\n    /* \"MyContract.sol\":379:380  2 */\n  0x02\n    /* \"MyContract.sol\":373:381  names[2] */\n  dup2\n  mstore\n  0x20\n  add\n  swap1\n  dup2\n  mstore\n  0x20\n  add\n  0x00\n  keccak256\n    /* \"MyContract.sol\":373:391  names[2] = \"Bruce\" */\n  swap1\n  dup1\n  mload\n  swap1\n  0x20\n  add\n  swap1\n  tag_6\n  swap3\n  swap2\n  swap1\n  tag_5\n  jump\t// in\ntag_6:\n  pop\n    /* \"MyContract.sol\":402:419  names[3] = \"Carl\" */\n  mload(0x40)\n  dup1\n  0x40\n  add\n  0x40\n  mstore\n  dup1\n  0x04\n  dup2\n  mstore\n  0x20\n  add\n  0x4361726c00000000000000000000000000000000000000000000000000000000\n  dup2\n  mstore\n  pop\n    /* \"MyContract.sol\":402:407  names */\n  0x00\n    /* \"MyContract.sol\":402:410  names[3] */\n  dup1\n    /* \"MyContract.sol\":408:409  3 */\n  0x03\n    /* \"MyContract.sol\":402:410  names[3] */\n  dup2\n  mstore\n  0x20\n  add\n  swap1\n  dup2\n  mstore\n  0x20\n  add\n  0x00\n  keccak256\n    /* \"MyContract.sol\":402:419  names[3] = \"Carl\" */\n  swap1\n  dup1\n  mload\n  swap1\n  0x20\n  add\n  swap1\n  tag_7\n  swap3\n  swap2\n  swap1\n  tag_5\n  jump\t// in\ntag_7:\n  pop\n    /* \"MyContract.sol\":60:802  contract MyContract {\r... */\n  jump(tag_8)\ntag_5:\n  dup3\n  dup1\n  sload\n  tag_9\n  swap1\n  tag_10\n  jump\t// in\ntag_9:\n  swap1\n  0x00\n  mstore\n  keccak256(0x00, 0x20)\n  swap1\n  0x1f\n  add\n  0x20\n  swap1\n  div\n  dup2\n  add\n  swap3\n  dup3\n  tag_12\n  jumpi\n  0x00\n  dup6\n  sstore\n  jump(tag_11)\ntag_12:\n  dup3\n  0x1f\n  lt\n  tag_13\n  jumpi\n  dup1\n  mload\n  not(0xff)\n  and\n  dup4\n  dup1\n  add\n  or\n  dup6\n  sstore\n  jump(tag_11)\ntag_13:\n  dup3\n  dup1\n  add\n  0x01\n  add\n  dup6\n  sstore\n  dup3\n  iszero\n  tag_11\n  jumpi\n  swap2\n  dup3\n  add\ntag_14:\n  dup3\n  dup2\n  gt\n  iszero\n  tag_15\n  jumpi\n  dup3\n  mload\n  dup3\n  sstore\n  swap2\n  0x20\n  add\n  swap2\n  swap1\n  0x01\n  add\n  swap1\n  jump(tag_14)\ntag_15:\ntag_11:\n  pop\n  swap1\n  pop\n  tag_16\n  swap2\n  swap1\n  tag_17\n  jump\t// in\ntag_16:\n  pop\n  swap1\n  jump\t// out\ntag_17:\ntag_18:\n  dup1\n  dup3\n  gt\n  iszero\n  tag_19\n  jumpi\n  0x00\n  dup2\n  0x00\n  swap1\n  sstore\n  pop\n  0x01\n  add\n  jump(tag_18)\ntag_19:\n  pop\n  swap1\n  jump\t// out\n    /* \"#utility.yul\":7:327   */\ntag_10:\n    /* \"#utility.yul\":51:57   */\n  0x00\n    /* \"#utility.yul\":88:89   */\n  0x02\n    /* \"#utility.yul\":82:86   */\n  dup3\n    /* \"#utility.yul\":78:90   */\n  div\n    /* \"#utility.yul\":68:90   */\n  swap1\n  pop\n    /* \"#utility.yul\":135:136   */\n  0x01\n    /* \"#utility.yul\":129:133   */\n  dup3\n    /* \"#utility.yul\":125:137   */\n  and\n    /* \"#utility.yul\":156:174   */\n  dup1\n    /* \"#utility.yul\":146:227   */\n  tag_22\n  jumpi\n    /* \"#utility.yul\":212:216   */\n  0x7f\n    /* \"#utility.yul\":204:210   */\n  dup3\n    /* \"#utility.yul\":200:217   */\n  and\n    /* \"#utility.yul\":190:217   */\n  swap2\n  pop\n    /* \"#utility.yul\":146:227   */\ntag_22:\n    /* \"#utility.yul\":274:276   */\n  0x20\n    /* \"#utility.yul\":266:272   */\n  dup3\n    /* \"#utility.yul\":263:277   */\n  lt\n    /* \"#utility.yul\":243:261   */\n  dup2\n    /* \"#utility.yul\":240:278   */\n  eq\n    /* \"#utility.yul\":237:321   */\n  iszero\n  tag_23\n  jumpi\n    /* \"#utility.yul\":293:311   */\n  tag_24\n  tag_25\n  jump\t// in\ntag_24:\n    /* \"#utility.yul\":237:321   */\ntag_23:\n    /* \"#utility.yul\":58:327   */\n  pop\n    /* \"#utility.yul\":7:327   */\n  swap2\n  swap1\n  pop\n  jump\t// out\n    /* \"#utility.yul\":333:513   */\ntag_25:\n    /* \"#utility.yul\":381:458   */\n  0x4e487b7100000000000000000000000000000000000000000000000000000000\n    /* \"#utility.yul\":378:379   */\n  0x00\n    /* \"#utility.yul\":371:459   */\n  mstore\n    /* \"#utility.yul\":478:482   */\n  0x22\n    /* \"#utility.yul\":475:476   */\n  0x04\n    /* \"#utility.yul\":468:483   */\n  mstore\n    /* \"#utility.yul\":502:506   */\n  0x24\n    /* \"#utility.yul\":499:500   */\n  0x00\n    /* \"#utility.yul\":492:507   */\n  revert\n    /* \"MyContract.sol\":60:802  contract MyContract {\r... */\ntag_8:\n  dataSize(sub_0)\n  dup1\n  dataOffset(sub_0)\n  0x00\n  codecopy\n  0x00\n  return\nstop\n\nsub_0: assembly {\n        /* \"MyContract.sol\":60:802  contract MyContract {\r... */\n      mstore(0x40, 0x80)\n      callvalue\n      dup1\n      iszero\n      tag_1\n      jumpi\n      0x00\n      dup1\n      revert\n    tag_1:\n      pop\n      jumpi(tag_2, lt(calldatasize, 0x04))\n      shr(0xe0, calldataload(0x00))\n      dup1\n      0x028414f2\n      eq\n      tag_3\n      jumpi\n      dup1\n      0x27d3553f\n      eq\n      tag_4\n      jumpi\n      dup1\n      0x493ec707\n      eq\n      tag_5\n      jumpi\n      dup1\n      0x68744046\n      eq\n      tag_6\n      jumpi\n    tag_2:\n      0x00\n      dup1\n      revert\n        /* \"MyContract.sol\":435:603  function addBook(\r... */\n    tag_3:\n      tag_7\n      0x04\n      dup1\n      calldatasize\n      sub\n      dup2\n      add\n      swap1\n      tag_8\n      swap2\n      swap1\n      tag_9\n      jump\t// in\n    tag_8:\n      tag_10\n      jump\t// in\n    tag_7:\n      stop\n        /* \"MyContract.sol\":180:236  mapping(address => mapping(uint => Book)) public myBooks */\n    tag_4:\n      tag_11\n      0x04\n      dup1\n      calldatasize\n      sub\n      dup2\n      add\n      swap1\n      tag_12\n      swap2\n      swap1\n      tag_13\n      jump\t// in\n    tag_12:\n      tag_14\n      jump\t// in\n    tag_11:\n      mload(0x40)\n      tag_15\n      swap3\n      swap2\n      swap1\n      tag_16\n      jump\t// in\n    tag_15:\n      mload(0x40)\n      dup1\n      swap2\n      sub\n      swap1\n      return\n        /* \"MyContract.sol\":615:799  function addMyBook(\r... */\n    tag_5:\n      tag_17\n      0x04\n      dup1\n      calldatasize\n      sub\n      dup2\n      add\n      swap1\n      tag_18\n      swap2\n      swap1\n      tag_9\n      jump\t// in\n    tag_18:\n      tag_19\n      jump\t// in\n    tag_17:\n      stop\n        /* \"MyContract.sol\":139:173  mapping(uint => Book) public books */\n    tag_6:\n      tag_20\n      0x04\n      dup1\n      calldatasize\n      sub\n      dup2\n      add\n      swap1\n      tag_21\n      swap2\n      swap1\n      tag_22\n      jump\t// in\n    tag_21:\n      tag_23\n      jump\t// in\n    tag_20:\n      mload(0x40)\n      tag_24\n      swap3\n      swap2\n      swap1\n      tag_16\n      jump\t// in\n    tag_24:\n      mload(0x40)\n      dup1\n      swap2\n      sub\n      swap1\n      return\n        /* \"MyContract.sol\":435:603  function addBook(\r... */\n    tag_10:\n        /* \"MyContract.sol\":574:595  Book(_title, _author) */\n      mload(0x40)\n      dup1\n      0x40\n      add\n      0x40\n      mstore\n      dup1\n        /* \"MyContract.sol\":579:585  _title */\n      dup4\n        /* \"MyContract.sol\":574:595  Book(_title, _author) */\n      dup2\n      mstore\n      0x20\n      add\n        /* \"MyContract.sol\":587:594  _author */\n      dup3\n        /* \"MyContract.sol\":574:595  Book(_title, _author) */\n      dup2\n      mstore\n      pop\n        /* \"MyContract.sol\":561:566  books */\n      0x01\n        /* \"MyContract.sol\":561:571  books[_id] */\n      0x00\n        /* \"MyContract.sol\":567:570  _id */\n      dup6\n        /* \"MyContract.sol\":561:571  books[_id] */\n      dup2\n      mstore\n      0x20\n      add\n      swap1\n      dup2\n      mstore\n      0x20\n      add\n      0x00\n      keccak256\n        /* \"MyContract.sol\":561:595  books[_id] = Book(_title, _author) */\n      0x00\n      dup3\n      add\n      mload\n      dup2\n      0x00\n      add\n      swap1\n      dup1\n      mload\n      swap1\n      0x20\n      add\n      swap1\n      tag_26\n      swap3\n      swap2\n      swap1\n      tag_27\n      jump\t// in\n    tag_26:\n      pop\n      0x20\n      dup3\n      add\n      mload\n      dup2\n      0x01\n      add\n      swap1\n      dup1\n      mload\n      swap1\n      0x20\n      add\n      swap1\n      tag_28\n      swap3\n      swap2\n      swap1\n      tag_27\n      jump\t// in\n    tag_28:\n      pop\n      swap1\n      pop\n      pop\n        /* \"MyContract.sol\":435:603  function addBook(\r... */\n      pop\n      pop\n      pop\n      jump\t// out\n        /* \"MyContract.sol\":180:236  mapping(address => mapping(uint => Book)) public myBooks */\n    tag_14:\n      mstore(0x20, 0x02)\n      dup2\n      0x00\n      mstore\n      mstore(0x20, keccak256(0x00, 0x40))\n      dup1\n      0x00\n      mstore\n      keccak256(0x00, 0x40)\n      0x00\n      swap2\n      pop\n      swap2\n      pop\n      pop\n      dup1\n      0x00\n      add\n      dup1\n      sload\n      tag_29\n      swap1\n      tag_30\n      jump\t// in\n    tag_29:\n      dup1\n      0x1f\n      add\n      0x20\n      dup1\n      swap2\n      div\n      mul\n      0x20\n      add\n      mload(0x40)\n      swap1\n      dup2\n      add\n      0x40\n      mstore\n      dup1\n      swap3\n      swap2\n      swap1\n      dup2\n      dup2\n      mstore\n      0x20\n      add\n      dup3\n      dup1\n      sload\n      tag_31\n      swap1\n      tag_30\n      jump\t// in\n    tag_31:\n      dup1\n      iszero\n      tag_32\n      jumpi\n      dup1\n      0x1f\n      lt\n      tag_33\n      jumpi\n      0x0100\n      dup1\n      dup4\n      sload\n      div\n      mul\n      dup4\n      mstore\n      swap2\n      0x20\n      add\n      swap2\n      jump(tag_32)\n    tag_33:\n      dup3\n      add\n      swap2\n      swap1\n      0x00\n      mstore\n      keccak256(0x00, 0x20)\n      swap1\n    tag_34:\n      dup2\n      sload\n      dup2\n      mstore\n      swap1\n      0x01\n      add\n      swap1\n      0x20\n      add\n      dup1\n      dup4\n      gt\n      tag_34\n      jumpi\n      dup3\n      swap1\n      sub\n      0x1f\n      and\n      dup3\n      add\n      swap2\n    tag_32:\n      pop\n      pop\n      pop\n      pop\n      pop\n      swap1\n      dup1\n      0x01\n      add\n      dup1\n      sload\n      tag_35\n      swap1\n      tag_30\n      jump\t// in\n    tag_35:\n      dup1\n      0x1f\n      add\n      0x20\n      dup1\n      swap2\n      div\n      mul\n      0x20\n      add\n      mload(0x40)\n      swap1\n      dup2\n      add\n      0x40\n      mstore\n      dup1\n      swap3\n      swap2\n      swap1\n      dup2\n      dup2\n      mstore\n      0x20\n      add\n      dup3\n      dup1\n      sload\n      tag_36\n      swap1\n      tag_30\n      jump\t// in\n    tag_36:\n      dup1\n      iszero\n      tag_37\n      jumpi\n      dup1\n      0x1f\n      lt\n      tag_38\n      jumpi\n      0x0100\n      dup1\n      dup4\n      sload\n      div\n      mul\n      dup4\n      mstore\n      swap2\n      0x20\n      add\n      swap2\n      jump(tag_37)\n    tag_38:\n      dup3\n      add\n      swap2\n      swap1\n      0x00\n      mstore\n      keccak256(0x00, 0x20)\n      swap1\n    tag_39:\n      dup2\n      sload\n      dup2\n      mstore\n      swap1\n      0x01\n      add\n      swap1\n      0x20\n      add\n      dup1\n      dup4\n      gt\n      tag_39\n      jumpi\n      dup3\n      swap1\n      sub\n      0x1f\n      and\n      dup3\n      add\n      swap2\n    tag_37:\n      pop\n      pop\n      pop\n      pop\n      pop\n      swap1\n      pop\n      dup3\n      jump\t// out\n        /* \"MyContract.sol\":615:799  function addMyBook(\r... */\n    tag_19:\n        /* \"MyContract.sol\":770:791  Book(_title, _author) */\n      mload(0x40)\n      dup1\n      0x40\n      add\n      0x40\n      mstore\n      dup1\n        /* \"MyContract.sol\":775:781  _title */\n      dup4\n        /* \"MyContract.sol\":770:791  Book(_title, _author) */\n      dup2\n      mstore\n      0x20\n      add\n        /* \"MyContract.sol\":783:790  _author */\n      dup3\n        /* \"MyContract.sol\":770:791  Book(_title, _author) */\n      dup2\n      mstore\n      pop\n        /* \"MyContract.sol\":743:750  myBooks */\n      0x02\n        /* \"MyContract.sol\":743:762  myBooks[msg.sender] */\n      0x00\n        /* \"MyContract.sol\":751:761  msg.sender */\n      caller\n        /* \"MyContract.sol\":743:762  myBooks[msg.sender] */\n      0xffffffffffffffffffffffffffffffffffffffff\n      and\n      0xffffffffffffffffffffffffffffffffffffffff\n      and\n      dup2\n      mstore\n      0x20\n      add\n      swap1\n      dup2\n      mstore\n      0x20\n      add\n      0x00\n      keccak256\n        /* \"MyContract.sol\":743:767  myBooks[msg.sender][_id] */\n      0x00\n        /* \"MyContract.sol\":763:766  _id */\n      dup6\n        /* \"MyContract.sol\":743:767  myBooks[msg.sender][_id] */\n      dup2\n      mstore\n      0x20\n      add\n      swap1\n      dup2\n      mstore\n      0x20\n      add\n      0x00\n      keccak256\n        /* \"MyContract.sol\":743:791  myBooks[msg.sender][_id] = Book(_title, _author) */\n      0x00\n      dup3\n      add\n      mload\n      dup2\n      0x00\n      add\n      swap1\n      dup1\n      mload\n      swap1\n      0x20\n      add\n      swap1\n      tag_41\n      swap3\n      swap2\n      swap1\n      tag_27\n      jump\t// in\n    tag_41:\n      pop\n      0x20\n      dup3\n      add\n      mload\n      dup2\n      0x01\n      add\n      swap1\n      dup1\n      mload\n      swap1\n      0x20\n      add\n      swap1\n      tag_42\n      swap3\n      swap2\n      swap1\n      tag_27\n      jump\t// in\n    tag_42:\n      pop\n      swap1\n      pop\n      pop\n        /* \"MyContract.sol\":615:799  function addMyBook(\r... */\n      pop\n      pop\n      pop\n      jump\t// out\n        /* \"MyContract.sol\":139:173  mapping(uint => Book) public books */\n    tag_23:\n      mstore(0x20, 0x01)\n      dup1\n      0x00\n      mstore\n      keccak256(0x00, 0x40)\n      0x00\n      swap2\n      pop\n      swap1\n      pop\n      dup1\n      0x00\n      add\n      dup1\n      sload\n      tag_43\n      swap1\n      tag_30\n      jump\t// in\n    tag_43:\n      dup1\n      0x1f\n      add\n      0x20\n      dup1\n      swap2\n      div\n      mul\n      0x20\n      add\n      mload(0x40)\n      swap1\n      dup2\n      add\n      0x40\n      mstore\n      dup1\n      swap3\n      swap2\n      swap1\n      dup2\n      dup2\n      mstore\n      0x20\n      add\n      dup3\n      dup1\n      sload\n      tag_44\n      swap1\n      tag_30\n      jump\t// in\n    tag_44:\n      dup1\n      iszero\n      tag_45\n      jumpi\n      dup1\n      0x1f\n      lt\n      tag_46\n      jumpi\n      0x0100\n      dup1\n      dup4\n      sload\n      div\n      mul\n      dup4\n      mstore\n      swap2\n      0x20\n      add\n      swap2\n      jump(tag_45)\n    tag_46:\n      dup3\n      add\n      swap2\n      swap1\n      0x00\n      mstore\n      keccak256(0x00, 0x20)\n      swap1\n    tag_47:\n      dup2\n      sload\n      dup2\n      mstore\n      swap1\n      0x01\n      add\n      swap1\n      0x20\n      add\n      dup1\n      dup4\n      gt\n      tag_47\n      jumpi\n      dup3\n      swap1\n      sub\n      0x1f\n      and\n      dup3\n      add\n      swap2\n    tag_45:\n      pop\n      pop\n      pop\n      pop\n      pop\n      swap1\n      dup1\n      0x01\n      add\n      dup1\n      sload\n      tag_48\n      swap1\n      tag_30\n      jump\t// in\n    tag_48:\n      dup1\n      0x1f\n      add\n      0x20\n      dup1\n      swap2\n      div\n      mul\n      0x20\n      add\n      mload(0x40)\n      swap1\n      dup2\n      add\n      0x40\n      mstore\n      dup1\n      swap3\n      swap2\n      swap1\n      dup2\n      dup2\n      mstore\n      0x20\n      add\n      dup3\n      dup1\n      sload\n      tag_49\n      swap1\n      tag_30\n      jump\t// in\n    tag_49:\n      dup1\n      iszero\n      tag_50\n      jumpi\n      dup1\n      0x1f\n      lt\n      tag_51\n      jumpi\n      0x0100\n      dup1\n      dup4\n      sload\n      div\n      mul\n      dup4\n      mstore\n      swap2\n      0x20\n      add\n      swap2\n      jump(tag_50)\n    tag_51:\n      dup3\n      add\n      swap2\n      swap1\n      0x00\n      mstore\n      keccak256(0x00, 0x20)\n      swap1\n    tag_52:\n      dup2\n      sload\n      dup2\n      mstore\n      swap1\n      0x01\n      add\n      swap1\n      0x20\n      add\n      dup1\n      dup4\n      gt\n      tag_52\n      jumpi\n      dup3\n      swap1\n      sub\n      0x1f\n      and\n      dup3\n      add\n      swap2\n    tag_50:\n      pop\n      pop\n      pop\n      pop\n      pop\n      swap1\n      pop\n      dup3\n      jump\t// out\n    tag_27:\n      dup3\n      dup1\n      sload\n      tag_53\n      swap1\n      tag_30\n      jump\t// in\n    tag_53:\n      swap1\n      0x00\n      mstore\n      keccak256(0x00, 0x20)\n      swap1\n      0x1f\n      add\n      0x20\n      swap1\n      div\n      dup2\n      add\n      swap3\n      dup3\n      tag_55\n      jumpi\n      0x00\n      dup6\n      sstore\n      jump(tag_54)\n    tag_55:\n      dup3\n      0x1f\n      lt\n      tag_56\n      jumpi\n      dup1\n      mload\n      not(0xff)\n      and\n      dup4\n      dup1\n      add\n      or\n      dup6\n      sstore\n      jump(tag_54)\n    tag_56:\n      dup3\n      dup1\n      add\n      0x01\n      add\n      dup6\n      sstore\n      dup3\n      iszero\n      tag_54\n      jumpi\n      swap2\n      dup3\n      add\n    tag_57:\n      dup3\n      dup2\n      gt\n      iszero\n      tag_58\n      jumpi\n      dup3\n      mload\n      dup3\n      sstore\n      swap2\n      0x20\n      add\n      swap2\n      swap1\n      0x01\n      add\n      swap1\n      jump(tag_57)\n    tag_58:\n    tag_54:\n      pop\n      swap1\n      pop\n      tag_59\n      swap2\n      swap1\n      tag_60\n      jump\t// in\n    tag_59:\n      pop\n      swap1\n      jump\t// out\n    tag_60:\n    tag_61:\n      dup1\n      dup3\n      gt\n      iszero\n      tag_62\n      jumpi\n      0x00\n      dup2\n      0x00\n      swap1\n      sstore\n      pop\n      0x01\n      add\n      jump(tag_61)\n    tag_62:\n      pop\n      swap1\n      jump\t// out\n        /* \"#utility.yul\":7:419   */\n    tag_64:\n        /* \"#utility.yul\":85:90   */\n      0x00\n        /* \"#utility.yul\":110:176   */\n      tag_66\n        /* \"#utility.yul\":126:175   */\n      tag_67\n        /* \"#utility.yul\":168:174   */\n      dup5\n        /* \"#utility.yul\":126:175   */\n      tag_68\n      jump\t// in\n    tag_67:\n        /* \"#utility.yul\":110:176   */\n      tag_69\n      jump\t// in\n    tag_66:\n        /* \"#utility.yul\":101:176   */\n      swap1\n      pop\n        /* \"#utility.yul\":199:205   */\n      dup3\n        /* \"#utility.yul\":192:197   */\n      dup2\n        /* \"#utility.yul\":185:206   */\n      mstore\n        /* \"#utility.yul\":237:241   */\n      0x20\n        /* \"#utility.yul\":230:235   */\n      dup2\n        /* \"#utility.yul\":226:242   */\n      add\n        /* \"#utility.yul\":275:278   */\n      dup5\n        /* \"#utility.yul\":266:272   */\n      dup5\n        /* \"#utility.yul\":261:264   */\n      dup5\n        /* \"#utility.yul\":257:273   */\n      add\n        /* \"#utility.yul\":254:279   */\n      gt\n        /* \"#utility.yul\":251:363   */\n      iszero\n      tag_70\n      jumpi\n        /* \"#utility.yul\":282:361   */\n      tag_71\n      tag_72\n      jump\t// in\n    tag_71:\n        /* \"#utility.yul\":251:363   */\n    tag_70:\n        /* \"#utility.yul\":372:413   */\n      tag_73\n        /* \"#utility.yul\":406:412   */\n      dup5\n        /* \"#utility.yul\":401:404   */\n      dup3\n        /* \"#utility.yul\":396:399   */\n      dup6\n        /* \"#utility.yul\":372:413   */\n      tag_74\n      jump\t// in\n    tag_73:\n        /* \"#utility.yul\":91:419   */\n      pop\n        /* \"#utility.yul\":7:419   */\n      swap4\n      swap3\n      pop\n      pop\n      pop\n      jump\t// out\n        /* \"#utility.yul\":425:564   */\n    tag_75:\n        /* \"#utility.yul\":471:476   */\n      0x00\n        /* \"#utility.yul\":509:515   */\n      dup2\n        /* \"#utility.yul\":496:516   */\n      calldataload\n        /* \"#utility.yul\":487:516   */\n      swap1\n      pop\n        /* \"#utility.yul\":525:558   */\n      tag_77\n        /* \"#utility.yul\":552:557   */\n      dup2\n        /* \"#utility.yul\":525:558   */\n      tag_78\n      jump\t// in\n    tag_77:\n        /* \"#utility.yul\":425:564   */\n      swap3\n      swap2\n      pop\n      pop\n      jump\t// out\n        /* \"#utility.yul\":584:924   */\n    tag_79:\n        /* \"#utility.yul\":640:645   */\n      0x00\n        /* \"#utility.yul\":689:692   */\n      dup3\n        /* \"#utility.yul\":682:686   */\n      0x1f\n        /* \"#utility.yul\":674:680   */\n      dup4\n        /* \"#utility.yul\":670:687   */\n      add\n        /* \"#utility.yul\":666:693   */\n      slt\n        /* \"#utility.yul\":656:778   */\n      tag_81\n      jumpi\n        /* \"#utility.yul\":697:776   */\n      tag_82\n      tag_83\n      jump\t// in\n    tag_82:\n        /* \"#utility.yul\":656:778   */\n    tag_81:\n        /* \"#utility.yul\":814:820   */\n      dup2\n        /* \"#utility.yul\":801:821   */\n      calldataload\n        /* \"#utility.yul\":839:918   */\n      tag_84\n        /* \"#utility.yul\":914:917   */\n      dup5\n        /* \"#utility.yul\":906:912   */\n      dup3\n        /* \"#utility.yul\":899:903   */\n      0x20\n        /* \"#utility.yul\":891:897   */\n      dup7\n        /* \"#utility.yul\":887:904   */\n      add\n        /* \"#utility.yul\":839:918   */\n      tag_64\n      jump\t// in\n    tag_84:\n        /* \"#utility.yul\":830:918   */\n      swap2\n      pop\n        /* \"#utility.yul\":646:924   */\n      pop\n        /* \"#utility.yul\":584:924   */\n      swap3\n      swap2\n      pop\n      pop\n      jump\t// out\n        /* \"#utility.yul\":930:1069   */\n    tag_85:\n        /* \"#utility.yul\":976:981   */\n      0x00\n        /* \"#utility.yul\":1014:1020   */\n      dup2\n        /* \"#utility.yul\":1001:1021   */\n      calldataload\n        /* \"#utility.yul\":992:1021   */\n      swap1\n      pop\n        /* \"#utility.yul\":1030:1063   */\n      tag_87\n        /* \"#utility.yul\":1057:1062   */\n      dup2\n        /* \"#utility.yul\":1030:1063   */\n      tag_88\n      jump\t// in\n    tag_87:\n        /* \"#utility.yul\":930:1069   */\n      swap3\n      swap2\n      pop\n      pop\n      jump\t// out\n        /* \"#utility.yul\":1075:1549   */\n    tag_13:\n        /* \"#utility.yul\":1143:1149   */\n      0x00\n        /* \"#utility.yul\":1151:1157   */\n      dup1\n        /* \"#utility.yul\":1200:1202   */\n      0x40\n        /* \"#utility.yul\":1188:1197   */\n      dup4\n        /* \"#utility.yul\":1179:1186   */\n      dup6\n        /* \"#utility.yul\":1175:1198   */\n      sub\n        /* \"#utility.yul\":1171:1203   */\n      slt\n        /* \"#utility.yul\":1168:1287   */\n      iszero\n      tag_90\n      jumpi\n        /* \"#utility.yul\":1206:1285   */\n      tag_91\n      tag_92\n      jump\t// in\n    tag_91:\n        /* \"#utility.yul\":1168:1287   */\n    tag_90:\n        /* \"#utility.yul\":1326:1327   */\n      0x00\n        /* \"#utility.yul\":1351:1404   */\n      tag_93\n        /* \"#utility.yul\":1396:1403   */\n      dup6\n        /* \"#utility.yul\":1387:1393   */\n      dup3\n        /* \"#utility.yul\":1376:1385   */\n      dup7\n        /* \"#utility.yul\":1372:1394   */\n      add\n        /* \"#utility.yul\":1351:1404   */\n      tag_75\n      jump\t// in\n    tag_93:\n        /* \"#utility.yul\":1341:1404   */\n      swap3\n      pop\n        /* \"#utility.yul\":1297:1414   */\n      pop\n        /* \"#utility.yul\":1453:1455   */\n      0x20\n        /* \"#utility.yul\":1479:1532   */\n      tag_94\n        /* \"#utility.yul\":1524:1531   */\n      dup6\n        /* \"#utility.yul\":1515:1521   */\n      dup3\n        /* \"#utility.yul\":1504:1513   */\n      dup7\n        /* \"#utility.yul\":1500:1522   */\n      add\n        /* \"#utility.yul\":1479:1532   */\n      tag_85\n      jump\t// in\n    tag_94:\n        /* \"#utility.yul\":1469:1532   */\n      swap2\n      pop\n        /* \"#utility.yul\":1424:1542   */\n      pop\n        /* \"#utility.yul\":1075:1549   */\n      swap3\n      pop\n      swap3\n      swap1\n      pop\n      jump\t// out\n        /* \"#utility.yul\":1555:1884   */\n    tag_22:\n        /* \"#utility.yul\":1614:1620   */\n      0x00\n        /* \"#utility.yul\":1663:1665   */\n      0x20\n        /* \"#utility.yul\":1651:1660   */\n      dup3\n        /* \"#utility.yul\":1642:1649   */\n      dup5\n        /* \"#utility.yul\":1638:1661   */\n      sub\n        /* \"#utility.yul\":1634:1666   */\n      slt\n        /* \"#utility.yul\":1631:1750   */\n      iszero\n      tag_96\n      jumpi\n        /* \"#utility.yul\":1669:1748   */\n      tag_97\n      tag_92\n      jump\t// in\n    tag_97:\n        /* \"#utility.yul\":1631:1750   */\n    tag_96:\n        /* \"#utility.yul\":1789:1790   */\n      0x00\n        /* \"#utility.yul\":1814:1867   */\n      tag_98\n        /* \"#utility.yul\":1859:1866   */\n      dup5\n        /* \"#utility.yul\":1850:1856   */\n      dup3\n        /* \"#utility.yul\":1839:1848   */\n      dup6\n        /* \"#utility.yul\":1835:1857   */\n      add\n        /* \"#utility.yul\":1814:1867   */\n      tag_85\n      jump\t// in\n    tag_98:\n        /* \"#utility.yul\":1804:1867   */\n      swap2\n      pop\n        /* \"#utility.yul\":1760:1877   */\n      pop\n        /* \"#utility.yul\":1555:1884   */\n      swap3\n      swap2\n      pop\n      pop\n      jump\t// out\n        /* \"#utility.yul\":1890:2869   */\n    tag_9:\n        /* \"#utility.yul\":1987:1993   */\n      0x00\n        /* \"#utility.yul\":1995:2001   */\n      dup1\n        /* \"#utility.yul\":2003:2009   */\n      0x00\n        /* \"#utility.yul\":2052:2054   */\n      0x60\n        /* \"#utility.yul\":2040:2049   */\n      dup5\n        /* \"#utility.yul\":2031:2038   */\n      dup7\n        /* \"#utility.yul\":2027:2050   */\n      sub\n        /* \"#utility.yul\":2023:2055   */\n      slt\n        /* \"#utility.yul\":2020:2139   */\n      iszero\n      tag_100\n      jumpi\n        /* \"#utility.yul\":2058:2137   */\n      tag_101\n      tag_92\n      jump\t// in\n    tag_101:\n        /* \"#utility.yul\":2020:2139   */\n    tag_100:\n        /* \"#utility.yul\":2178:2179   */\n      0x00\n        /* \"#utility.yul\":2203:2256   */\n      tag_102\n        /* \"#utility.yul\":2248:2255   */\n      dup7\n        /* \"#utility.yul\":2239:2245   */\n      dup3\n        /* \"#utility.yul\":2228:2237   */\n      dup8\n        /* \"#utility.yul\":2224:2246   */\n      add\n        /* \"#utility.yul\":2203:2256   */\n      tag_85\n      jump\t// in\n    tag_102:\n        /* \"#utility.yul\":2193:2256   */\n      swap4\n      pop\n        /* \"#utility.yul\":2149:2266   */\n      pop\n        /* \"#utility.yul\":2333:2335   */\n      0x20\n        /* \"#utility.yul\":2322:2331   */\n      dup5\n        /* \"#utility.yul\":2318:2336   */\n      add\n        /* \"#utility.yul\":2305:2337   */\n      calldataload\n        /* \"#utility.yul\":2364:2382   */\n      0xffffffffffffffff\n        /* \"#utility.yul\":2356:2362   */\n      dup2\n        /* \"#utility.yul\":2353:2383   */\n      gt\n        /* \"#utility.yul\":2350:2467   */\n      iszero\n      tag_103\n      jumpi\n        /* \"#utility.yul\":2386:2465   */\n      tag_104\n      tag_105\n      jump\t// in\n    tag_104:\n        /* \"#utility.yul\":2350:2467   */\n    tag_103:\n        /* \"#utility.yul\":2491:2554   */\n      tag_106\n        /* \"#utility.yul\":2546:2553   */\n      dup7\n        /* \"#utility.yul\":2537:2543   */\n      dup3\n        /* \"#utility.yul\":2526:2535   */\n      dup8\n        /* \"#utility.yul\":2522:2544   */\n      add\n        /* \"#utility.yul\":2491:2554   */\n      tag_79\n      jump\t// in\n    tag_106:\n        /* \"#utility.yul\":2481:2554   */\n      swap3\n      pop\n        /* \"#utility.yul\":2276:2564   */\n      pop\n        /* \"#utility.yul\":2631:2633   */\n      0x40\n        /* \"#utility.yul\":2620:2629   */\n      dup5\n        /* \"#utility.yul\":2616:2634   */\n      add\n        /* \"#utility.yul\":2603:2635   */\n      calldataload\n        /* \"#utility.yul\":2662:2680   */\n      0xffffffffffffffff\n        /* \"#utility.yul\":2654:2660   */\n      dup2\n        /* \"#utility.yul\":2651:2681   */\n      gt\n        /* \"#utility.yul\":2648:2765   */\n      iszero\n      tag_107\n      jumpi\n        /* \"#utility.yul\":2684:2763   */\n      tag_108\n      tag_105\n      jump\t// in\n    tag_108:\n        /* \"#utility.yul\":2648:2765   */\n    tag_107:\n        /* \"#utility.yul\":2789:2852   */\n      tag_109\n        /* \"#utility.yul\":2844:2851   */\n      dup7\n        /* \"#utility.yul\":2835:2841   */\n      dup3\n        /* \"#utility.yul\":2824:2833   */\n      dup8\n        /* \"#utility.yul\":2820:2842   */\n      add\n        /* \"#utility.yul\":2789:2852   */\n      tag_79\n      jump\t// in\n    tag_109:\n        /* \"#utility.yul\":2779:2852   */\n      swap2\n      pop\n        /* \"#utility.yul\":2574:2862   */\n      pop\n        /* \"#utility.yul\":1890:2869   */\n      swap3\n      pop\n      swap3\n      pop\n      swap3\n      jump\t// out\n        /* \"#utility.yul\":2875:3239   */\n    tag_110:\n        /* \"#utility.yul\":2963:2966   */\n      0x00\n        /* \"#utility.yul\":2991:3030   */\n      tag_112\n        /* \"#utility.yul\":3024:3029   */\n      dup3\n        /* \"#utility.yul\":2991:3030   */\n      tag_113\n      jump\t// in\n    tag_112:\n        /* \"#utility.yul\":3046:3117   */\n      tag_114\n        /* \"#utility.yul\":3110:3116   */\n      dup2\n        /* \"#utility.yul\":3105:3108   */\n      dup6\n        /* \"#utility.yul\":3046:3117   */\n      tag_115\n      jump\t// in\n    tag_114:\n        /* \"#utility.yul\":3039:3117   */\n      swap4\n      pop\n        /* \"#utility.yul\":3126:3178   */\n      tag_116\n        /* \"#utility.yul\":3171:3177   */\n      dup2\n        /* \"#utility.yul\":3166:3169   */\n      dup6\n        /* \"#utility.yul\":3159:3163   */\n      0x20\n        /* \"#utility.yul\":3152:3157   */\n      dup7\n        /* \"#utility.yul\":3148:3164   */\n      add\n        /* \"#utility.yul\":3126:3178   */\n      tag_117\n      jump\t// in\n    tag_116:\n        /* \"#utility.yul\":3203:3232   */\n      tag_118\n        /* \"#utility.yul\":3225:3231   */\n      dup2\n        /* \"#utility.yul\":3203:3232   */\n      tag_119\n      jump\t// in\n    tag_118:\n        /* \"#utility.yul\":3198:3201   */\n      dup5\n        /* \"#utility.yul\":3194:3233   */\n      add\n        /* \"#utility.yul\":3187:3233   */\n      swap2\n      pop\n        /* \"#utility.yul\":2967:3239   */\n      pop\n        /* \"#utility.yul\":2875:3239   */\n      swap3\n      swap2\n      pop\n      pop\n      jump\t// out\n        /* \"#utility.yul\":3245:3759   */\n    tag_16:\n        /* \"#utility.yul\":3406:3410   */\n      0x00\n        /* \"#utility.yul\":3444:3446   */\n      0x40\n        /* \"#utility.yul\":3433:3442   */\n      dup3\n        /* \"#utility.yul\":3429:3447   */\n      add\n        /* \"#utility.yul\":3421:3447   */\n      swap1\n      pop\n        /* \"#utility.yul\":3493:3502   */\n      dup2\n        /* \"#utility.yul\":3487:3491   */\n      dup2\n        /* \"#utility.yul\":3483:3503   */\n      sub\n        /* \"#utility.yul\":3479:3480   */\n      0x00\n        /* \"#utility.yul\":3468:3477   */\n      dup4\n        /* \"#utility.yul\":3464:3481   */\n      add\n        /* \"#utility.yul\":3457:3504   */\n      mstore\n        /* \"#utility.yul\":3521:3599   */\n      tag_121\n        /* \"#utility.yul\":3594:3598   */\n      dup2\n        /* \"#utility.yul\":3585:3591   */\n      dup6\n        /* \"#utility.yul\":3521:3599   */\n      tag_110\n      jump\t// in\n    tag_121:\n        /* \"#utility.yul\":3513:3599   */\n      swap1\n      pop\n        /* \"#utility.yul\":3646:3655   */\n      dup2\n        /* \"#utility.yul\":3640:3644   */\n      dup2\n        /* \"#utility.yul\":3636:3656   */\n      sub\n        /* \"#utility.yul\":3631:3633   */\n      0x20\n        /* \"#utility.yul\":3620:3629   */\n      dup4\n        /* \"#utility.yul\":3616:3634   */\n      add\n        /* \"#utility.yul\":3609:3657   */\n      mstore\n        /* \"#utility.yul\":3674:3752   */\n      tag_122\n        /* \"#utility.yul\":3747:3751   */\n      dup2\n        /* \"#utility.yul\":3738:3744   */\n      dup5\n        /* \"#utility.yul\":3674:3752   */\n      tag_110\n      jump\t// in\n    tag_122:\n        /* \"#utility.yul\":3666:3752   */\n      swap1\n      pop\n        /* \"#utility.yul\":3245:3759   */\n      swap4\n      swap3\n      pop\n      pop\n      pop\n      jump\t// out\n        /* \"#utility.yul\":3765:3894   */\n    tag_69:\n        /* \"#utility.yul\":3799:3805   */\n      0x00\n        /* \"#utility.yul\":3826:3846   */\n      tag_124\n      tag_125\n      jump\t// in\n    tag_124:\n        /* \"#utility.yul\":3816:3846   */\n      swap1\n      pop\n        /* \"#utility.yul\":3855:3888   */\n      tag_126\n        /* \"#utility.yul\":3883:3887   */\n      dup3\n        /* \"#utility.yul\":3875:3881   */\n      dup3\n        /* \"#utility.yul\":3855:3888   */\n      tag_127\n      jump\t// in\n    tag_126:\n        /* \"#utility.yul\":3765:3894   */\n      swap2\n      swap1\n      pop\n      jump\t// out\n        /* \"#utility.yul\":3900:3975   */\n    tag_125:\n        /* \"#utility.yul\":3933:3939   */\n      0x00\n        /* \"#utility.yul\":3966:3968   */\n      0x40\n        /* \"#utility.yul\":3960:3969   */\n      mload\n        /* \"#utility.yul\":3950:3969   */\n      swap1\n      pop\n        /* \"#utility.yul\":3900:3975   */\n      swap1\n      jump\t// out\n        /* \"#utility.yul\":3981:4289   */\n    tag_68:\n        /* \"#utility.yul\":4043:4047   */\n      0x00\n        /* \"#utility.yul\":4133:4151   */\n      0xffffffffffffffff\n        /* \"#utility.yul\":4125:4131   */\n      dup3\n        /* \"#utility.yul\":4122:4152   */\n      gt\n        /* \"#utility.yul\":4119:4175   */\n      iszero\n      tag_130\n      jumpi\n        /* \"#utility.yul\":4155:4173   */\n      tag_131\n      tag_132\n      jump\t// in\n    tag_131:\n        /* \"#utility.yul\":4119:4175   */\n    tag_130:\n        /* \"#utility.yul\":4193:4222   */\n      tag_133\n        /* \"#utility.yul\":4215:4221   */\n      dup3\n        /* \"#utility.yul\":4193:4222   */\n      tag_119\n      jump\t// in\n    tag_133:\n        /* \"#utility.yul\":4185:4222   */\n      swap1\n      pop\n        /* \"#utility.yul\":4277:4281   */\n      0x20\n        /* \"#utility.yul\":4271:4275   */\n      dup2\n        /* \"#utility.yul\":4267:4282   */\n      add\n        /* \"#utility.yul\":4259:4282   */\n      swap1\n      pop\n        /* \"#utility.yul\":3981:4289   */\n      swap2\n      swap1\n      pop\n      jump\t// out\n        /* \"#utility.yul\":4295:4394   */\n    tag_113:\n        /* \"#utility.yul\":4347:4353   */\n      0x00\n        /* \"#utility.yul\":4381:4386   */\n      dup2\n        /* \"#utility.yul\":4375:4387   */\n      mload\n        /* \"#utility.yul\":4365:4387   */\n      swap1\n      pop\n        /* \"#utility.yul\":4295:4394   */\n      swap2\n      swap1\n      pop\n      jump\t// out\n        /* \"#utility.yul\":4400:4569   */\n    tag_115:\n        /* \"#utility.yul\":4484:4495   */\n      0x00\n        /* \"#utility.yul\":4518:4524   */\n      dup3\n        /* \"#utility.yul\":4513:4516   */\n      dup3\n        /* \"#utility.yul\":4506:4525   */\n      mstore\n        /* \"#utility.yul\":4558:4562   */\n      0x20\n        /* \"#utility.yul\":4553:4556   */\n      dup3\n        /* \"#utility.yul\":4549:4563   */\n      add\n        /* \"#utility.yul\":4534:4563   */\n      swap1\n      pop\n        /* \"#utility.yul\":4400:4569   */\n      swap3\n      swap2\n      pop\n      pop\n      jump\t// out\n        /* \"#utility.yul\":4575:4671   */\n    tag_136:\n        /* \"#utility.yul\":4612:4619   */\n      0x00\n        /* \"#utility.yul\":4641:4665   */\n      tag_138\n        /* \"#utility.yul\":4659:4664   */\n      dup3\n        /* \"#utility.yul\":4641:4665   */\n      tag_139\n      jump\t// in\n    tag_138:\n        /* \"#utility.yul\":4630:4665   */\n      swap1\n      pop\n        /* \"#utility.yul\":4575:4671   */\n      swap2\n      swap1\n      pop\n      jump\t// out\n        /* \"#utility.yul\":4677:4803   */\n    tag_139:\n        /* \"#utility.yul\":4714:4721   */\n      0x00\n        /* \"#utility.yul\":4754:4796   */\n      0xffffffffffffffffffffffffffffffffffffffff\n        /* \"#utility.yul\":4747:4752   */\n      dup3\n        /* \"#utility.yul\":4743:4797   */\n      and\n        /* \"#utility.yul\":4732:4797   */\n      swap1\n      pop\n        /* \"#utility.yul\":4677:4803   */\n      swap2\n      swap1\n      pop\n      jump\t// out\n        /* \"#utility.yul\":4809:4886   */\n    tag_141:\n        /* \"#utility.yul\":4846:4853   */\n      0x00\n        /* \"#utility.yul\":4875:4880   */\n      dup2\n        /* \"#utility.yul\":4864:4880   */\n      swap1\n      pop\n        /* \"#utility.yul\":4809:4886   */\n      swap2\n      swap1\n      pop\n      jump\t// out\n        /* \"#utility.yul\":4892:5046   */\n    tag_74:\n        /* \"#utility.yul\":4976:4982   */\n      dup3\n        /* \"#utility.yul\":4971:4974   */\n      dup2\n        /* \"#utility.yul\":4966:4969   */\n      dup4\n        /* \"#utility.yul\":4953:4983   */\n      calldatacopy\n        /* \"#utility.yul\":5038:5039   */\n      0x00\n        /* \"#utility.yul\":5029:5035   */\n      dup4\n        /* \"#utility.yul\":5024:5027   */\n      dup4\n        /* \"#utility.yul\":5020:5036   */\n      add\n        /* \"#utility.yul\":5013:5040   */\n      mstore\n        /* \"#utility.yul\":4892:5046   */\n      pop\n      pop\n      pop\n      jump\t// out\n        /* \"#utility.yul\":5052:5359   */\n    tag_117:\n        /* \"#utility.yul\":5120:5121   */\n      0x00\n        /* \"#utility.yul\":5130:5243   */\n    tag_145:\n        /* \"#utility.yul\":5144:5150   */\n      dup4\n        /* \"#utility.yul\":5141:5142   */\n      dup2\n        /* \"#utility.yul\":5138:5151   */\n      lt\n        /* \"#utility.yul\":5130:5243   */\n      iszero\n      tag_147\n      jumpi\n        /* \"#utility.yul\":5229:5230   */\n      dup1\n        /* \"#utility.yul\":5224:5227   */\n      dup3\n        /* \"#utility.yul\":5220:5231   */\n      add\n        /* \"#utility.yul\":5214:5232   */\n      mload\n        /* \"#utility.yul\":5210:5211   */\n      dup2\n        /* \"#utility.yul\":5205:5208   */\n      dup5\n        /* \"#utility.yul\":5201:5212   */\n      add\n        /* \"#utility.yul\":5194:5233   */\n      mstore\n        /* \"#utility.yul\":5166:5168   */\n      0x20\n        /* \"#utility.yul\":5163:5164   */\n      dup2\n        /* \"#utility.yul\":5159:5169   */\n      add\n        /* \"#utility.yul\":5154:5169   */\n      swap1\n      pop\n        /* \"#utility.yul\":5130:5243   */\n      jump(tag_145)\n    tag_147:\n        /* \"#utility.yul\":5261:5267   */\n      dup4\n        /* \"#utility.yul\":5258:5259   */\n      dup2\n        /* \"#utility.yul\":5255:5268   */\n      gt\n        /* \"#utility.yul\":5252:5353   */\n      iszero\n      tag_148\n      jumpi\n        /* \"#utility.yul\":5341:5342   */\n      0x00\n        /* \"#utility.yul\":5332:5338   */\n      dup5\n        /* \"#utility.yul\":5327:5330   */\n      dup5\n        /* \"#utility.yul\":5323:5339   */\n      add\n        /* \"#utility.yul\":5316:5343   */\n      mstore\n        /* \"#utility.yul\":5252:5353   */\n    tag_148:\n        /* \"#utility.yul\":5101:5359   */\n      pop\n        /* \"#utility.yul\":5052:5359   */\n      pop\n      pop\n      pop\n      jump\t// out\n        /* \"#utility.yul\":5365:5685   */\n    tag_30:\n        /* \"#utility.yul\":5409:5415   */\n      0x00\n        /* \"#utility.yul\":5446:5447   */\n      0x02\n        /* \"#utility.yul\":5440:5444   */\n      dup3\n        /* \"#utility.yul\":5436:5448   */\n      div\n        /* \"#utility.yul\":5426:5448   */\n      swap1\n      pop\n        /* \"#utility.yul\":5493:5494   */\n      0x01\n        /* \"#utility.yul\":5487:5491   */\n      dup3\n        /* \"#utility.yul\":5483:5495   */\n      and\n        /* \"#utility.yul\":5514:5532   */\n      dup1\n        /* \"#utility.yul\":5504:5585   */\n      tag_150\n      jumpi\n        /* \"#utility.yul\":5570:5574   */\n      0x7f\n        /* \"#utility.yul\":5562:5568   */\n      dup3\n        /* \"#utility.yul\":5558:5575   */\n      and\n        /* \"#utility.yul\":5548:5575   */\n      swap2\n      pop\n        /* \"#utility.yul\":5504:5585   */\n    tag_150:\n        /* \"#utility.yul\":5632:5634   */\n      0x20\n        /* \"#utility.yul\":5624:5630   */\n      dup3\n        /* \"#utility.yul\":5621:5635   */\n      lt\n        /* \"#utility.yul\":5601:5619   */\n      dup2\n        /* \"#utility.yul\":5598:5636   */\n      eq\n        /* \"#utility.yul\":5595:5679   */\n      iszero\n      tag_151\n      jumpi\n        /* \"#utility.yul\":5651:5669   */\n      tag_152\n      tag_153\n      jump\t// in\n    tag_152:\n        /* \"#utility.yul\":5595:5679   */\n    tag_151:\n        /* \"#utility.yul\":5416:5685   */\n      pop\n        /* \"#utility.yul\":5365:5685   */\n      swap2\n      swap1\n      pop\n      jump\t// out\n        /* \"#utility.yul\":5691:5972   */\n    tag_127:\n        /* \"#utility.yul\":5774:5801   */\n      tag_155\n        /* \"#utility.yul\":5796:5800   */\n      dup3\n        /* \"#utility.yul\":5774:5801   */\n      tag_119\n      jump\t// in\n    tag_155:\n        /* \"#utility.yul\":5766:5772   */\n      dup2\n        /* \"#utility.yul\":5762:5802   */\n      add\n        /* \"#utility.yul\":5904:5910   */\n      dup2\n        /* \"#utility.yul\":5892:5902   */\n      dup2\n        /* \"#utility.yul\":5889:5911   */\n      lt\n        /* \"#utility.yul\":5868:5886   */\n      0xffffffffffffffff\n        /* \"#utility.yul\":5856:5866   */\n      dup3\n        /* \"#utility.yul\":5853:5887   */\n      gt\n        /* \"#utility.yul\":5850:5912   */\n      or\n        /* \"#utility.yul\":5847:5935   */\n      iszero\n      tag_156\n      jumpi\n        /* \"#utility.yul\":5915:5933   */\n      tag_157\n      tag_132\n      jump\t// in\n    tag_157:\n        /* \"#utility.yul\":5847:5935   */\n    tag_156:\n        /* \"#utility.yul\":5955:5965   */\n      dup1\n        /* \"#utility.yul\":5951:5953   */\n      0x40\n        /* \"#utility.yul\":5944:5966   */\n      mstore\n        /* \"#utility.yul\":5734:5972   */\n      pop\n        /* \"#utility.yul\":5691:5972   */\n      pop\n      pop\n      jump\t// out\n        /* \"#utility.yul\":5978:6158   */\n    tag_153:\n        /* \"#utility.yul\":6026:6103   */\n      0x4e487b7100000000000000000000000000000000000000000000000000000000\n        /* \"#utility.yul\":6023:6024   */\n      0x00\n        /* \"#utility.yul\":6016:6104   */\n      mstore\n        /* \"#utility.yul\":6123:6127   */\n      0x22\n        /* \"#utility.yul\":6120:6121   */\n      0x04\n        /* \"#utility.yul\":6113:6128   */\n      mstore\n        /* \"#utility.yul\":6147:6151   */\n      0x24\n        /* \"#utility.yul\":6144:6145   */\n      0x00\n        /* \"#utility.yul\":6137:6152   */\n      revert\n        /* \"#utility.yul\":6164:6344   */\n    tag_132:\n        /* \"#utility.yul\":6212:6289   */\n      0x4e487b7100000000000000000000000000000000000000000000000000000000\n        /* \"#utility.yul\":6209:6210   */\n      0x00\n        /* \"#utility.yul\":6202:6290   */\n      mstore\n        /* \"#utility.yul\":6309:6313   */\n      0x41\n        /* \"#utility.yul\":6306:6307   */\n      0x04\n        /* \"#utility.yul\":6299:6314   */\n      mstore\n        /* \"#utility.yul\":6333:6337   */\n      0x24\n        /* \"#utility.yul\":6330:6331   */\n      0x00\n        /* \"#utility.yul\":6323:6338   */\n      revert\n        /* \"#utility.yul\":6350:6467   */\n    tag_83:\n        /* \"#utility.yul\":6459:6460   */\n      0x00\n        /* \"#utility.yul\":6456:6457   */\n      dup1\n        /* \"#utility.yul\":6449:6461   */\n      revert\n        /* \"#utility.yul\":6473:6590   */\n    tag_72:\n        /* \"#utility.yul\":6582:6583   */\n      0x00\n        /* \"#utility.yul\":6579:6580   */\n      dup1\n        /* \"#utility.yul\":6572:6584   */\n      revert\n        /* \"#utility.yul\":6596:6713   */\n    tag_105:\n        /* \"#utility.yul\":6705:6706   */\n      0x00\n        /* \"#utility.yul\":6702:6703   */\n      dup1\n        /* \"#utility.yul\":6695:6707   */\n      revert\n        /* \"#utility.yul\":6719:6836   */\n    tag_92:\n        /* \"#utility.yul\":6828:6829   */\n      0x00\n        /* \"#utility.yul\":6825:6826   */\n      dup1\n        /* \"#utility.yul\":6818:6830   */\n      revert\n        /* \"#utility.yul\":6842:6944   */\n    tag_119:\n        /* \"#utility.yul\":6883:6889   */\n      0x00\n        /* \"#utility.yul\":6934:6936   */\n      0x1f\n        /* \"#utility.yul\":6930:6937   */\n      not\n        /* \"#utility.yul\":6925:6927   */\n      0x1f\n        /* \"#utility.yul\":6918:6923   */\n      dup4\n        /* \"#utility.yul\":6914:6928   */\n      add\n        /* \"#utility.yul\":6910:6938   */\n      and\n        /* \"#utility.yul\":6900:6938   */\n      swap1\n      pop\n        /* \"#utility.yul\":6842:6944   */\n      swap2\n      swap1\n      pop\n      jump\t// out\n        /* \"#utility.yul\":6950:7072   */\n    tag_78:\n        /* \"#utility.yul\":7023:7047   */\n      tag_166\n        /* \"#utility.yul\":7041:7046   */\n      dup2\n        /* \"#utility.yul\":7023:7047   */\n      tag_136\n      jump\t// in\n    tag_166:\n        /* \"#utility.yul\":7016:7021   */\n      dup2\n        /* \"#utility.yul\":7013:7048   */\n      eq\n        /* \"#utility.yul\":7003:7066   */\n      tag_167\n      jumpi\n        /* \"#utility.yul\":7062:7063   */\n      0x00\n        /* \"#utility.yul\":7059:7060   */\n      dup1\n        /* \"#utility.yul\":7052:7064   */\n      revert\n        /* \"#utility.yul\":7003:7066   */\n    tag_167:\n        /* \"#utility.yul\":6950:7072   */\n      pop\n      jump\t// out\n        /* \"#utility.yul\":7078:7200   */\n    tag_88:\n        /* \"#utility.yul\":7151:7175   */\n      tag_169\n        /* \"#utility.yul\":7169:7174   */\n      dup2\n        /* \"#utility.yul\":7151:7175   */\n      tag_141\n      jump\t// in\n    tag_169:\n        /* \"#utility.yul\":7144:7149   */\n      dup2\n        /* \"#utility.yul\":7141:7176   */\n      eq\n        /* \"#utility.yul\":7131:7194   */\n      tag_170\n      jumpi\n        /* \"#utility.yul\":7190:7191   */\n      0x00\n        /* \"#utility.yul\":7187:7188   */\n      dup1\n        /* \"#utility.yul\":7180:7192   */\n      revert\n        /* \"#utility.yul\":7131:7194   */\n    tag_170:\n        /* \"#utility.yul\":7078:7200   */\n      pop\n      jump\t// out\n\n    auxdata: 0xa26469706673582212202c3dda9a9e15439b4fabeda61c3c97cbc4f6de5001ddd994241661650fce277f64736f6c63430008070033\n}\n",
				"bytecode": {
					"linkReferences": {},
					"object": "608060405234801561001057600080fd5b506040518060400160405280600481526020017f4164616d0000000000000000000000000000000000000000000000000000000081525060008060018152602001908152602001600020908051906020019061006d92919061012d565b506040518060400160405280600581526020017f42727563650000000000000000000000000000000000000000000000000000008152506000806002815260200190815260200160002090805190602001906100ca92919061012d565b506040518060400160405280600481526020017f4361726c0000000000000000000000000000000000000000000000000000000081525060008060038152602001908152602001600020908051906020019061012792919061012d565b50610231565b828054610139906101d0565b90600052602060002090601f01602090048101928261015b57600085556101a2565b82601f1061017457805160ff19168380011785556101a2565b828001600101855582156101a2579182015b828111156101a1578251825591602001919060010190610186565b5b5090506101af91906101b3565b5090565b5b808211156101cc5760008160009055506001016101b4565b5090565b600060028204905060018216806101e857607f821691505b602082108114156101fc576101fb610202565b5b50919050565b7f4e487b7100000000000000000000000000000000000000000000000000000000600052602260045260246000fd5b610950806102406000396000f3fe608060405234801561001057600080fd5b506004361061004c5760003560e01c8063028414f21461005157806327d3553f1461006d578063493ec7071461009e57806368744046146100ba575b600080fd5b61006b6004803603810190610066919061061b565b6100eb565b005b610087600480360381019061008291906105ae565b610155565b6040516100959291906106df565b60405180910390f35b6100b860048036038101906100b3919061061b565b610296565b005b6100d460048036038101906100cf91906105ee565b61033d565b6040516100e29291906106df565b60405180910390f35b60405180604001604052808381526020018281525060016000858152602001908152602001600020600082015181600001908051906020019061012f929190610471565b50602082015181600101908051906020019061014c929190610471565b50905050505050565b60026020528160005260406000206020528060005260406000206000915091505080600001805461018590610806565b80601f01602080910402602001604051908101604052809291908181526020018280546101b190610806565b80156101fe5780601f106101d3576101008083540402835291602001916101fe565b820191906000526020600020905b8154815290600101906020018083116101e157829003601f168201915b50505050509080600101805461021390610806565b80601f016020809104026020016040519081016040528092919081815260200182805461023f90610806565b801561028c5780601f106102615761010080835404028352916020019161028c565b820191906000526020600020905b81548152906001019060200180831161026f57829003601f168201915b5050505050905082565b604051806040016040528083815260200182815250600260003373ffffffffffffffffffffffffffffffffffffffff1673ffffffffffffffffffffffffffffffffffffffff16815260200190815260200160002060008581526020019081526020016000206000820151816000019080519060200190610317929190610471565b506020820151816001019080519060200190610334929190610471565b50905050505050565b600160205280600052604060002060009150905080600001805461036090610806565b80601f016020809104026020016040519081016040528092919081815260200182805461038c90610806565b80156103d95780601f106103ae576101008083540402835291602001916103d9565b820191906000526020600020905b8154815290600101906020018083116103bc57829003601f168201915b5050505050908060010180546103ee90610806565b80601f016020809104026020016040519081016040528092919081815260200182805461041a90610806565b80156104675780601f1061043c57610100808354040283529160200191610467565b820191906000526020600020905b81548152906001019060200180831161044a57829003601f168201915b5050505050905082565b82805461047d90610806565b90600052602060002090601f01602090048101928261049f57600085556104e6565b82601f106104b857805160ff19168380011785556104e6565b828001600101855582156104e6579182015b828111156104e55782518255916020019190600101906104ca565b5b5090506104f391906104f7565b5090565b5b808211156105105760008160009055506001016104f8565b5090565b60006105276105228461073b565b610716565b905082815260208101848484011115610543576105426108cc565b5b61054e8482856107c4565b509392505050565b600081359050610565816108ec565b92915050565b600082601f8301126105805761057f6108c7565b5b8135610590848260208601610514565b91505092915050565b6000813590506105a881610903565b92915050565b600080604083850312156105c5576105c46108d6565b5b60006105d385828601610556565b92505060206105e485828601610599565b9150509250929050565b600060208284031215610604576106036108d6565b5b600061061284828501610599565b91505092915050565b600080600060608486031215610634576106336108d6565b5b600061064286828701610599565b935050602084013567ffffffffffffffff811115610663576106626108d1565b5b61066f8682870161056b565b925050604084013567ffffffffffffffff8111156106905761068f6108d1565b5b61069c8682870161056b565b9150509250925092565b60006106b18261076c565b6106bb8185610777565b93506106cb8185602086016107d3565b6106d4816108db565b840191505092915050565b600060408201905081810360008301526106f981856106a6565b9050818103602083015261070d81846106a6565b90509392505050565b6000610720610731565b905061072c8282610838565b919050565b6000604051905090565b600067ffffffffffffffff82111561075657610755610898565b5b61075f826108db565b9050602081019050919050565b600081519050919050565b600082825260208201905092915050565b60006107938261079a565b9050919050565b600073ffffffffffffffffffffffffffffffffffffffff82169050919050565b6000819050919050565b82818337600083830152505050565b60005b838110156107f15780820151818401526020810190506107d6565b83811115610800576000848401525b50505050565b6000600282049050600182168061081e57607f821691505b6020821081141561083257610831610869565b5b50919050565b610841826108db565b810181811067ffffffffffffffff821117156108605761085f610898565b5b80604052505050565b7f4e487b7100000000000000000000000000000000000000000000000000000000600052602260045260246000fd5b7f4e487b7100000000000000000000000000000000000000000000000000000000600052604160045260246000fd5b600080fd5b600080fd5b600080fd5b600080fd5b6000601f19601f8301169050919050565b6108f581610788565b811461090057600080fd5b50565b61090c816107ba565b811461091757600080fd5b5056fea26469706673582212202c3dda9a9e15439b4fabeda61c3c97cbc4f6de5001ddd994241661650fce277f64736f6c63430008070033",
					"opcodes": "PUSH1 0x80 PUSH1 0x40 MSTORE CALLVALUE DUP1 ISZERO PUSH2 0x10 JUMPI PUSH1 0x0 DUP1 REVERT JUMPDEST POP PUSH1 0x40 MLOAD DUP1 PUSH1 0x40 ADD PUSH1 0x40 MSTORE DUP1 PUSH1 0x4 DUP2 MSTORE PUSH1 0x20 ADD PUSH32 0x4164616D00000000000000000000000000000000000000000000000000000000 DUP2 MSTORE POP PUSH1 0x0 DUP1 PUSH1 0x1 DUP2 MSTORE PUSH1 0x20 ADD SWAP1 DUP2 MSTORE PUSH1 0x20 ADD PUSH1 0x0 KECCAK256 SWAP1 DUP1 MLOAD SWAP1 PUSH1 0x20 ADD SWAP1 PUSH2 0x6D SWAP3 SWAP2 SWAP1 PUSH2 0x12D JUMP JUMPDEST POP PUSH1 0x40 MLOAD DUP1 PUSH1 0x40 ADD PUSH1 0x40 MSTORE DUP1 PUSH1 0x5 DUP2 MSTORE PUSH1 0x20 ADD PUSH32 0x4272756365000000000000000000000000000000000000000000000000000000 DUP2 MSTORE POP PUSH1 0x0 DUP1 PUSH1 0x2 DUP2 MSTORE PUSH1 0x20 ADD SWAP1 DUP2 MSTORE PUSH1 0x20 ADD PUSH1 0x0 KECCAK256 SWAP1 DUP1 MLOAD SWAP1 PUSH1 0x20 ADD SWAP1 PUSH2 0xCA SWAP3 SWAP2 SWAP1 PUSH2 0x12D JUMP JUMPDEST POP PUSH1 0x40 MLOAD DUP1 PUSH1 0x40 ADD PUSH1 0x40 MSTORE DUP1 PUSH1 0x4 DUP2 MSTORE PUSH1 0x20 ADD PUSH32 0x4361726C00000000000000000000000000000000000000000000000000000000 DUP2 MSTORE POP PUSH1 0x0 DUP1 PUSH1 0x3 DUP2 MSTORE PUSH1 0x20 ADD SWAP1 DUP2 MSTORE PUSH1 0x20 ADD PUSH1 0x0 KECCAK256 SWAP1 DUP1 MLOAD SWAP1 PUSH1 0x20 ADD SWAP1 PUSH2 0x127 SWAP3 SWAP2 SWAP1 PUSH2 0x12D JUMP JUMPDEST POP PUSH2 0x231 JUMP JUMPDEST DUP3 DUP1 SLOAD PUSH2 0x139 SWAP1 PUSH2 0x1D0 JUMP JUMPDEST SWAP1 PUSH1 0x0 MSTORE PUSH1 0x20 PUSH1 0x0 KECCAK256 SWAP1 PUSH1 0x1F ADD PUSH1 0x20 SWAP1 DIV DUP2 ADD SWAP3 DUP3 PUSH2 0x15B JUMPI PUSH1 0x0 DUP6 SSTORE PUSH2 0x1A2 JUMP JUMPDEST DUP3 PUSH1 0x1F LT PUSH2 0x174 JUMPI DUP1 MLOAD PUSH1 0xFF NOT AND DUP4 DUP1 ADD OR DUP6 SSTORE PUSH2 0x1A2 JUMP JUMPDEST DUP3 DUP1 ADD PUSH1 0x1 ADD DUP6 SSTORE DUP3 ISZERO PUSH2 0x1A2 JUMPI SWAP2 DUP3 ADD JUMPDEST DUP3 DUP2 GT ISZERO PUSH2 0x1A1 JUMPI DUP3 MLOAD DUP3 SSTORE SWAP2 PUSH1 0x20 ADD SWAP2 SWAP1 PUSH1 0x1 ADD SWAP1 PUSH2 0x186 JUMP JUMPDEST JUMPDEST POP SWAP1 POP PUSH2 0x1AF SWAP2 SWAP1 PUSH2 0x1B3 JUMP JUMPDEST POP SWAP1 JUMP JUMPDEST JUMPDEST DUP1 DUP3 GT ISZERO PUSH2 0x1CC JUMPI PUSH1 0x0 DUP2 PUSH1 0x0 SWAP1 SSTORE POP PUSH1 0x1 ADD PUSH2 0x1B4 JUMP JUMPDEST POP SWAP1 JUMP JUMPDEST PUSH1 0x0 PUSH1 0x2 DUP3 DIV SWAP1 POP PUSH1 0x1 DUP3 AND DUP1 PUSH2 0x1E8 JUMPI PUSH1 0x7F DUP3 AND SWAP2 POP JUMPDEST PUSH1 0x20 DUP3 LT DUP2 EQ ISZERO PUSH2 0x1FC JUMPI PUSH2 0x1FB PUSH2 0x202 JUMP JUMPDEST JUMPDEST POP SWAP2 SWAP1 POP JUMP JUMPDEST PUSH32 0x4E487B7100000000000000000000000000000000000000000000000000000000 PUSH1 0x0 MSTORE PUSH1 0x22 PUSH1 0x4 MSTORE PUSH1 0x24 PUSH1 0x0 REVERT JUMPDEST PUSH2 0x950 DUP1 PUSH2 0x240 PUSH1 0x0 CODECOPY PUSH1 0x0 RETURN INVALID PUSH1 0x80 PUSH1 0x40 MSTORE CALLVALUE DUP1 ISZERO PUSH2 0x10 JUMPI PUSH1 0x0 DUP1 REVERT JUMPDEST POP PUSH1 0x4 CALLDATASIZE LT PUSH2 0x4C JUMPI PUSH1 0x0 CALLDATALOAD PUSH1 0xE0 SHR DUP1 PUSH4 0x28414F2 EQ PUSH2 0x51 JUMPI DUP1 PUSH4 0x27D3553F EQ PUSH2 0x6D JUMPI DUP1 PUSH4 0x493EC707 EQ PUSH2 0x9E JUMPI DUP1 PUSH4 0x68744046 EQ PUSH2 0xBA JUMPI JUMPDEST PUSH1 0x0 DUP1 REVERT JUMPDEST PUSH2 0x6B PUSH1 0x4 DUP1 CALLDATASIZE SUB DUP2 ADD SWAP1 PUSH2 0x66 SWAP2 SWAP1 PUSH2 0x61B JUMP JUMPDEST PUSH2 0xEB JUMP JUMPDEST STOP JUMPDEST PUSH2 0x87 PUSH1 0x4 DUP1 CALLDATASIZE SUB DUP2 ADD SWAP1 PUSH2 0x82 SWAP2 SWAP1 PUSH2 0x5AE JUMP JUMPDEST PUSH2 0x155 JUMP JUMPDEST PUSH1 0x40 MLOAD PUSH2 0x95 SWAP3 SWAP2 SWAP1 PUSH2 0x6DF JUMP JUMPDEST PUSH1 0x40 MLOAD DUP1 SWAP2 SUB SWAP1 RETURN JUMPDEST PUSH2 0xB8 PUSH1 0x4 DUP1 CALLDATASIZE SUB DUP2 ADD SWAP1 PUSH2 0xB3 SWAP2 SWAP1 PUSH2 0x61B JUMP JUMPDEST PUSH2 0x296 JUMP JUMPDEST STOP JUMPDEST PUSH2 0xD4 PUSH1 0x4 DUP1 CALLDATASIZE SUB DUP2 ADD SWAP1 PUSH2 0xCF SWAP2 SWAP1 PUSH2 0x5EE JUMP JUMPDEST PUSH2 0x33D JUMP JUMPDEST PUSH1 0x40 MLOAD PUSH2 0xE2 SWAP3 SWAP2 SWAP1 PUSH2 0x6DF JUMP JUMPDEST PUSH1 0x40 MLOAD DUP1 SWAP2 SUB SWAP1 RETURN JUMPDEST PUSH1 0x40 MLOAD DUP1 PUSH1 0x40 ADD PUSH1 0x40 MSTORE DUP1 DUP4 DUP2 MSTORE PUSH1 0x20 ADD DUP3 DUP2 MSTORE POP PUSH1 0x1 PUSH1 0x0 DUP6 DUP2 MSTORE PUSH1 0x20 ADD SWAP1 DUP2 MSTORE PUSH1 0x20 ADD PUSH1 0x0 KECCAK256 PUSH1 0x0 DUP3 ADD MLOAD DUP2 PUSH1 0x0 ADD SWAP1 DUP1 MLOAD SWAP1 PUSH1 0x20 ADD SWAP1 PUSH2 0x12F SWAP3 SWAP2 SWAP1 PUSH2 0x471 JUMP JUMPDEST POP PUSH1 0x20 DUP3 ADD MLOAD DUP2 PUSH1 0x1 ADD SWAP1 DUP1 MLOAD SWAP1 PUSH1 0x20 ADD SWAP1 PUSH2 0x14C SWAP3 SWAP2 SWAP1 PUSH2 0x471 JUMP JUMPDEST POP SWAP1 POP POP POP POP POP JUMP JUMPDEST PUSH1 0x2 PUSH1 0x20 MSTORE DUP2 PUSH1 0x0 MSTORE PUSH1 0x40 PUSH1 0x0 KECCAK256 PUSH1 0x20 MSTORE DUP1 PUSH1 0x0 MSTORE PUSH1 0x40 PUSH1 0x0 KECCAK256 PUSH1 0x0 SWAP2 POP SWAP2 POP POP DUP1 PUSH1 0x0 ADD DUP1 SLOAD PUSH2 0x185 SWAP1 PUSH2 0x806 JUMP JUMPDEST DUP1 PUSH1 0x1F ADD PUSH1 0x20 DUP1 SWAP2 DIV MUL PUSH1 0x20 ADD PUSH1 0x40 MLOAD SWAP1 DUP2 ADD PUSH1 0x40 MSTORE DUP1 SWAP3 SWAP2 SWAP1 DUP2 DUP2 MSTORE PUSH1 0x20 ADD DUP3 DUP1 SLOAD PUSH2 0x1B1 SWAP1 PUSH2 0x806 JUMP JUMPDEST DUP1 ISZERO PUSH2 0x1FE JUMPI DUP1 PUSH1 0x1F LT PUSH2 0x1D3 JUMPI PUSH2 0x100 DUP1 DUP4 SLOAD DIV MUL DUP4 MSTORE SWAP2 PUSH1 0x20 ADD SWAP2 PUSH2 0x1FE JUMP JUMPDEST DUP3 ADD SWAP2 SWAP1 PUSH1 0x0 MSTORE PUSH1 0x20 PUSH1 0x0 KECCAK256 SWAP1 JUMPDEST DUP2 SLOAD DUP2 MSTORE SWAP1 PUSH1 0x1 ADD SWAP1 PUSH1 0x20 ADD DUP1 DUP4 GT PUSH2 0x1E1 JUMPI DUP3 SWAP1 SUB PUSH1 0x1F AND DUP3 ADD SWAP2 JUMPDEST POP POP POP POP POP SWAP1 DUP1 PUSH1 0x1 ADD DUP1 SLOAD PUSH2 0x213 SWAP1 PUSH2 0x806 JUMP JUMPDEST DUP1 PUSH1 0x1F ADD PUSH1 0x20 DUP1 SWAP2 DIV MUL PUSH1 0x20 ADD PUSH1 0x40 MLOAD SWAP1 DUP2 ADD PUSH1 0x40 MSTORE DUP1 SWAP3 SWAP2 SWAP1 DUP2 DUP2 MSTORE PUSH1 0x20 ADD DUP3 DUP1 SLOAD PUSH2 0x23F SWAP1 PUSH2 0x806 JUMP JUMPDEST DUP1 ISZERO PUSH2 0x28C JUMPI DUP1 PUSH1 0x1F LT PUSH2 0x261 JUMPI PUSH2 0x100 DUP1 DUP4 SLOAD DIV MUL DUP4 MSTORE SWAP2 PUSH1 0x20 ADD SWAP2 PUSH2 0x28C JUMP JUMPDEST DUP3 ADD SWAP2 SWAP1 PUSH1 0x0 MSTORE PUSH1 0x20 PUSH1 0x0 KECCAK256 SWAP1 JUMPDEST DUP2 SLOAD DUP2 MSTORE SWAP1 PUSH1 0x1 ADD SWAP1 PUSH1 0x20 ADD DUP1 DUP4 GT PUSH2 0x26F JUMPI DUP3 SWAP1 SUB PUSH1 0x1F AND DUP3 ADD SWAP2 JUMPDEST POP POP POP POP POP SWAP1 POP DUP3 JUMP JUMPDEST PUSH1 0x40 MLOAD DUP1 PUSH1 0x40 ADD PUSH1 0x40 MSTORE DUP1 DUP4 DUP2 MSTORE PUSH1 0x20 ADD DUP3 DUP2 MSTORE POP PUSH1 0x2 PUSH1 0x0 CALLER PUSH20 0xFFFFFFFFFFFFFFFFFFFFFFFFFFFFFFFFFFFFFFFF AND PUSH20 0xFFFFFFFFFFFFFFFFFFFFFFFFFFFFFFFFFFFFFFFF AND DUP2 MSTORE PUSH1 0x20 ADD SWAP1 DUP2 MSTORE PUSH1 0x20 ADD PUSH1 0x0 KECCAK256 PUSH1 0x0 DUP6 DUP2 MSTORE PUSH1 0x20 ADD SWAP1 DUP2 MSTORE PUSH1 0x20 ADD PUSH1 0x0 KECCAK256 PUSH1 0x0 DUP3 ADD MLOAD DUP2 PUSH1 0x0 ADD SWAP1 DUP1 MLOAD SWAP1 PUSH1 0x20 ADD SWAP1 PUSH2 0x317 SWAP3 SWAP2 SWAP1 PUSH2 0x471 JUMP JUMPDEST POP PUSH1 0x20 DUP3 ADD MLOAD DUP2 PUSH1 0x1 ADD SWAP1 DUP1 MLOAD SWAP1 PUSH1 0x20 ADD SWAP1 PUSH2 0x334 SWAP3 SWAP2 SWAP1 PUSH2 0x471 JUMP JUMPDEST POP SWAP1 POP POP POP POP POP JUMP JUMPDEST PUSH1 0x1 PUSH1 0x20 MSTORE DUP1 PUSH1 0x0 MSTORE PUSH1 0x40 PUSH1 0x0 KECCAK256 PUSH1 0x0 SWAP2 POP SWAP1 POP DUP1 PUSH1 0x0 ADD DUP1 SLOAD PUSH2 0x360 SWAP1 PUSH2 0x806 JUMP JUMPDEST DUP1 PUSH1 0x1F ADD PUSH1 0x20 DUP1 SWAP2 DIV MUL PUSH1 0x20 ADD PUSH1 0x40 MLOAD SWAP1 DUP2 ADD PUSH1 0x40 MSTORE DUP1 SWAP3 SWAP2 SWAP1 DUP2 DUP2 MSTORE PUSH1 0x20 ADD DUP3 DUP1 SLOAD PUSH2 0x38C SWAP1 PUSH2 0x806 JUMP JUMPDEST DUP1 ISZERO PUSH2 0x3D9 JUMPI DUP1 PUSH1 0x1F LT PUSH2 0x3AE JUMPI PUSH2 0x100 DUP1 DUP4 SLOAD DIV MUL DUP4 MSTORE SWAP2 PUSH1 0x20 ADD SWAP2 PUSH2 0x3D9 JUMP JUMPDEST DUP3 ADD SWAP2 SWAP1 PUSH1 0x0 MSTORE PUSH1 0x20 PUSH1 0x0 KECCAK256 SWAP1 JUMPDEST DUP2 SLOAD DUP2 MSTORE SWAP1 PUSH1 0x1 ADD SWAP1 PUSH1 0x20 ADD DUP1 DUP4 GT PUSH2 0x3BC JUMPI DUP3 SWAP1 SUB PUSH1 0x1F AND DUP3 ADD SWAP2 JUMPDEST POP POP POP POP POP SWAP1 DUP1 PUSH1 0x1 ADD DUP1 SLOAD PUSH2 0x3EE SWAP1 PUSH2 0x806 JUMP JUMPDEST DUP1 PUSH1 0x1F ADD PUSH1 0x20 DUP1 SWAP2 DIV MUL PUSH1 0x20 ADD PUSH1 0x40 MLOAD SWAP1 DUP2 ADD PUSH1 0x40 MSTORE DUP1 SWAP3 SWAP2 SWAP1 DUP2 DUP2 MSTORE PUSH1 0x20 ADD DUP3 DUP1 SLOAD PUSH2 0x41A SWAP1 PUSH2 0x806 JUMP JUMPDEST DUP1 ISZERO PUSH2 0x467 JUMPI DUP1 PUSH1 0x1F LT PUSH2 0x43C JUMPI PUSH2 0x100 DUP1 DUP4 SLOAD DIV MUL DUP4 MSTORE SWAP2 PUSH1 0x20 ADD SWAP2 PUSH2 0x467 JUMP JUMPDEST DUP3 ADD SWAP2 SWAP1 PUSH1 0x0 MSTORE PUSH1 0x20 PUSH1 0x0 KECCAK256 SWAP1 JUMPDEST DUP2 SLOAD DUP2 MSTORE SWAP1 PUSH1 0x1 ADD SWAP1 PUSH1 0x20 ADD DUP1 DUP4 GT PUSH2 0x44A JUMPI DUP3 SWAP1 SUB PUSH1 0x1F AND DUP3 ADD SWAP2 JUMPDEST POP POP POP POP POP SWAP1 POP DUP3 JUMP JUMPDEST DUP3 DUP1 SLOAD PUSH2 0x47D SWAP1 PUSH2 0x806 JUMP JUMPDEST SWAP1 PUSH1 0x0 MSTORE PUSH1 0x20 PUSH1 0x0 KECCAK256 SWAP1 PUSH1 0x1F ADD PUSH1 0x20 SWAP1 DIV DUP2 ADD SWAP3 DUP3 PUSH2 0x49F JUMPI PUSH1 0x0 DUP6 SSTORE PUSH2 0x4E6 JUMP JUMPDEST DUP3 PUSH1 0x1F LT PUSH2 0x4B8 JUMPI DUP1 MLOAD PUSH1 0xFF NOT AND DUP4 DUP1 ADD OR DUP6 SSTORE PUSH2 0x4E6 JUMP JUMPDEST DUP3 DUP1 ADD PUSH1 0x1 ADD DUP6 SSTORE DUP3 ISZERO PUSH2 0x4E6 JUMPI SWAP2 DUP3 ADD JUMPDEST DUP3 DUP2 GT ISZERO PUSH2 0x4E5 JUMPI DUP3 MLOAD DUP3 SSTORE SWAP2 PUSH1 0x20 ADD SWAP2 SWAP1 PUSH1 0x1 ADD SWAP1 PUSH2 0x4CA JUMP JUMPDEST JUMPDEST POP SWAP1 POP PUSH2 0x4F3 SWAP2 SWAP1 PUSH2 0x4F7 JUMP JUMPDEST POP SWAP1 JUMP JUMPDEST JUMPDEST DUP1 DUP3 GT ISZERO PUSH2 0x510 JUMPI PUSH1 0x0 DUP2 PUSH1 0x0 SWAP1 SSTORE POP PUSH1 0x1 ADD PUSH2 0x4F8 JUMP JUMPDEST POP SWAP1 JUMP JUMPDEST PUSH1 0x0 PUSH2 0x527 PUSH2 0x522 DUP5 PUSH2 0x73B JUMP JUMPDEST PUSH2 0x716 JUMP JUMPDEST SWAP1 POP DUP3 DUP2 MSTORE PUSH1 0x20 DUP2 ADD DUP5 DUP5 DUP5 ADD GT ISZERO PUSH2 0x543 JUMPI PUSH2 0x542 PUSH2 0x8CC JUMP JUMPDEST JUMPDEST PUSH2 0x54E DUP5 DUP3 DUP6 PUSH2 0x7C4 JUMP JUMPDEST POP SWAP4 SWAP3 POP POP POP JUMP JUMPDEST PUSH1 0x0 DUP2 CALLDATALOAD SWAP1 POP PUSH2 0x565 DUP2 PUSH2 0x8EC JUMP JUMPDEST SWAP3 SWAP2 POP POP JUMP JUMPDEST PUSH1 0x0 DUP3 PUSH1 0x1F DUP4 ADD SLT PUSH2 0x580 JUMPI PUSH2 0x57F PUSH2 0x8C7 JUMP JUMPDEST JUMPDEST DUP2 CALLDATALOAD PUSH2 0x590 DUP5 DUP3 PUSH1 0x20 DUP7 ADD PUSH2 0x514 JUMP JUMPDEST SWAP2 POP POP SWAP3 SWAP2 POP POP JUMP JUMPDEST PUSH1 0x0 DUP2 CALLDATALOAD SWAP1 POP PUSH2 0x5A8 DUP2 PUSH2 0x903 JUMP JUMPDEST SWAP3 SWAP2 POP POP JUMP JUMPDEST PUSH1 0x0 DUP1 PUSH1 0x40 DUP4 DUP6 SUB SLT ISZERO PUSH2 0x5C5 JUMPI PUSH2 0x5C4 PUSH2 0x8D6 JUMP JUMPDEST JUMPDEST PUSH1 0x0 PUSH2 0x5D3 DUP6 DUP3 DUP7 ADD PUSH2 0x556 JUMP JUMPDEST SWAP3 POP POP PUSH1 0x20 PUSH2 0x5E4 DUP6 DUP3 DUP7 ADD PUSH2 0x599 JUMP JUMPDEST SWAP2 POP POP SWAP3 POP SWAP3 SWAP1 POP JUMP JUMPDEST PUSH1 0x0 PUSH1 0x20 DUP3 DUP5 SUB SLT ISZERO PUSH2 0x604 JUMPI PUSH2 0x603 PUSH2 0x8D6 JUMP JUMPDEST JUMPDEST PUSH1 0x0 PUSH2 0x612 DUP5 DUP3 DUP6 ADD PUSH2 0x599 JUMP JUMPDEST SWAP2 POP POP SWAP3 SWAP2 POP POP JUMP JUMPDEST PUSH1 0x0 DUP1 PUSH1 0x0 PUSH1 0x60 DUP5 DUP7 SUB SLT ISZERO PUSH2 0x634 JUMPI PUSH2 0x633 PUSH2 0x8D6 JUMP JUMPDEST JUMPDEST PUSH1 0x0 PUSH2 0x642 DUP7 DUP3 DUP8 ADD PUSH2 0x599 JUMP JUMPDEST SWAP4 POP POP PUSH1 0x20 DUP5 ADD CALLDATALOAD PUSH8 0xFFFFFFFFFFFFFFFF DUP2 GT ISZERO PUSH2 0x663 JUMPI PUSH2 0x662 PUSH2 0x8D1 JUMP JUMPDEST JUMPDEST PUSH2 0x66F DUP7 DUP3 DUP8 ADD PUSH2 0x56B JUMP JUMPDEST SWAP3 POP POP PUSH1 0x40 DUP5 ADD CALLDATALOAD PUSH8 0xFFFFFFFFFFFFFFFF DUP2 GT ISZERO PUSH2 0x690 JUMPI PUSH2 0x68F PUSH2 0x8D1 JUMP JUMPDEST JUMPDEST PUSH2 0x69C DUP7 DUP3 DUP8 ADD PUSH2 0x56B JUMP JUMPDEST SWAP2 POP POP SWAP3 POP SWAP3 POP SWAP3 JUMP JUMPDEST PUSH1 0x0 PUSH2 0x6B1 DUP3 PUSH2 0x76C JUMP JUMPDEST PUSH2 0x6BB DUP2 DUP6 PUSH2 0x777 JUMP JUMPDEST SWAP4 POP PUSH2 0x6CB DUP2 DUP6 PUSH1 0x20 DUP7 ADD PUSH2 0x7D3 JUMP JUMPDEST PUSH2 0x6D4 DUP2 PUSH2 0x8DB JUMP JUMPDEST DUP5 ADD SWAP2 POP POP SWAP3 SWAP2 POP POP JUMP JUMPDEST PUSH1 0x0 PUSH1 0x40 DUP3 ADD SWAP1 POP DUP2 DUP2 SUB PUSH1 0x0 DUP4 ADD MSTORE PUSH2 0x6F9 DUP2 DUP6 PUSH2 0x6A6 JUMP JUMPDEST SWAP1 POP DUP2 DUP2 SUB PUSH1 0x20 DUP4 ADD MSTORE PUSH2 0x70D DUP2 DUP5 PUSH2 0x6A6 JUMP JUMPDEST SWAP1 POP SWAP4 SWAP3 POP POP POP JUMP JUMPDEST PUSH1 0x0 PUSH2 0x720 PUSH2 0x731 JUMP JUMPDEST SWAP1 POP PUSH2 0x72C DUP3 DUP3 PUSH2 0x838 JUMP JUMPDEST SWAP2 SWAP1 POP JUMP JUMPDEST PUSH1 0x0 PUSH1 0x40 MLOAD SWAP1 POP SWAP1 JUMP JUMPDEST PUSH1 0x0 PUSH8 0xFFFFFFFFFFFFFFFF DUP3 GT ISZERO PUSH2 0x756 JUMPI PUSH2 0x755 PUSH2 0x898 JUMP JUMPDEST JUMPDEST PUSH2 0x75F DUP3 PUSH2 0x8DB JUMP JUMPDEST SWAP1 POP PUSH1 0x20 DUP2 ADD SWAP1 POP SWAP2 SWAP1 POP JUMP JUMPDEST PUSH1 0x0 DUP2 MLOAD SWAP1 POP SWAP2 SWAP1 POP JUMP JUMPDEST PUSH1 0x0 DUP3 DUP3 MSTORE PUSH1 0x20 DUP3 ADD SWAP1 POP SWAP3 SWAP2 POP POP JUMP JUMPDEST PUSH1 0x0 PUSH2 0x793 DUP3 PUSH2 0x79A JUMP JUMPDEST SWAP1 POP SWAP2 SWAP1 POP JUMP JUMPDEST PUSH1 0x0 PUSH20 0xFFFFFFFFFFFFFFFFFFFFFFFFFFFFFFFFFFFFFFFF DUP3 AND SWAP1 POP SWAP2 SWAP1 POP JUMP JUMPDEST PUSH1 0x0 DUP2 SWAP1 POP SWAP2 SWAP1 POP JUMP JUMPDEST DUP3 DUP2 DUP4 CALLDATACOPY PUSH1 0x0 DUP4 DUP4 ADD MSTORE POP POP POP JUMP JUMPDEST PUSH1 0x0 JUMPDEST DUP4 DUP2 LT ISZERO PUSH2 0x7F1 JUMPI DUP1 DUP3 ADD MLOAD DUP2 DUP5 ADD MSTORE PUSH1 0x20 DUP2 ADD SWAP1 POP PUSH2 0x7D6 JUMP JUMPDEST DUP4 DUP2 GT ISZERO PUSH2 0x800 JUMPI PUSH1 0x0 DUP5 DUP5 ADD MSTORE JUMPDEST POP POP POP POP JUMP JUMPDEST PUSH1 0x0 PUSH1 0x2 DUP3 DIV SWAP1 POP PUSH1 0x1 DUP3 AND DUP1 PUSH2 0x81E JUMPI PUSH1 0x7F DUP3 AND SWAP2 POP JUMPDEST PUSH1 0x20 DUP3 LT DUP2 EQ ISZERO PUSH2 0x832 JUMPI PUSH2 0x831 PUSH2 0x869 JUMP JUMPDEST JUMPDEST POP SWAP2 SWAP1 POP JUMP JUMPDEST PUSH2 0x841 DUP3 PUSH2 0x8DB JUMP JUMPDEST DUP2 ADD DUP2 DUP2 LT PUSH8 0xFFFFFFFFFFFFFFFF DUP3 GT OR ISZERO PUSH2 0x860 JUMPI PUSH2 0x85F PUSH2 0x898 JUMP JUMPDEST JUMPDEST DUP1 PUSH1 0x40 MSTORE POP POP POP JUMP JUMPDEST PUSH32 0x4E487B7100000000000000000000000000000000000000000000000000000000 PUSH1 0x0 MSTORE PUSH1 0x22 PUSH1 0x4 MSTORE PUSH1 0x24 PUSH1 0x0 REVERT JUMPDEST PUSH32 0x4E487B7100000000000000000000000000000000000000000000000000000000 PUSH1 0x0 MSTORE PUSH1 0x41 PUSH1 0x4 MSTORE PUSH1 0x24 PUSH1 0x0 REVERT JUMPDEST PUSH1 0x0 DUP1 REVERT JUMPDEST PUSH1 0x0 DUP1 REVERT JUMPDEST PUSH1 0x0 DUP1 REVERT JUMPDEST PUSH1 0x0 DUP1 REVERT JUMPDEST PUSH1 0x0 PUSH1 0x1F NOT PUSH1 0x1F DUP4 ADD AND SWAP1 POP SWAP2 SWAP1 POP JUMP JUMPDEST PUSH2 0x8F5 DUP2 PUSH2 0x788 JUMP JUMPDEST DUP2 EQ PUSH2 0x900 JUMPI PUSH1 0x0 DUP1 REVERT JUMPDEST POP JUMP JUMPDEST PUSH2 0x90C DUP2 PUSH2 0x7BA JUMP JUMPDEST DUP2 EQ PUSH2 0x917 JUMPI PUSH1 0x0 DUP1 REVERT JUMPDEST POP JUMP INVALID LOG2 PUSH5 0x6970667358 0x22 SLT KECCAK256 0x2C RETURNDATASIZE 0xDA SWAP11 SWAP15 ISZERO NUMBER SWAP12 0x4F 0xAB 0xED 0xA6 SHR EXTCODECOPY SWAP8 0xCB 0xC4 0xF6 0xDE POP ADD 0xDD 0xD9 SWAP5 0x24 AND PUSH2 0x650F 0xCE 0x27 PUSH32 0x64736F6C63430008070033000000000000000000000000000000000000000000 "
				},
				"gasEstimates": {
					"creation": {
						"codeDepositCost": "476800",
						"executionCost": "infinite",
						"totalCost": "infinite"
					},
					"external": {
						"addBook(uint256,string,string)": "infinite",
						"addMyBook(uint256,string,string)": "infinite",
						"books(uint256)": "infinite",
						"myBooks(address,uint256)": "infinite"
					}
				},
				"methodIdentifiers": {
					"addBook(uint256,string,string)": "028414f2",
					"addMyBook(uint256,string,string)": "493ec707",
					"books(uint256)": "68744046",
					"myBooks(address,uint256)": "27d3553f"
				}
			},
			"storageLayout": {
				"storage": [
					{
						"astId": 5,
						"contract": "MyContract.sol:MyContract",
						"label": "names",
						"offset": 0,
						"slot": "0",
						"type": "t_mapping(t_uint256,t_string_storage)"
					},
					{
						"astId": 10,
						"contract": "MyContract.sol:MyContract",
						"label": "books",
						"offset": 0,
						"slot": "1",
						"type": "t_mapping(t_uint256,t_struct(Book)22_storage)"
					},
					{
						"astId": 17,
						"contract": "MyContract.sol:MyContract",
						"label": "myBooks",
						"offset": 0,
						"slot": "2",
						"type": "t_mapping(t_address,t_mapping(t_uint256,t_struct(Book)22_storage))"
					}
				],
				"types": {
					"t_address": {
						"encoding": "inplace",
						"label": "address",
						"numberOfBytes": "20"
					},
					"t_mapping(t_address,t_mapping(t_uint256,t_struct(Book)22_storage))": {
						"encoding": "mapping",
						"key": "t_address",
						"label": "mapping(address => mapping(uint256 => struct MyContract.Book))",
						"numberOfBytes": "32",
						"value": "t_mapping(t_uint256,t_struct(Book)22_storage)"
					},
					"t_mapping(t_uint256,t_string_storage)": {
						"encoding": "mapping",
						"key": "t_uint256",
						"label": "mapping(uint256 => string)",
						"numberOfBytes": "32",
						"value": "t_string_storage"
					},
					"t_mapping(t_uint256,t_struct(Book)22_storage)": {
						"encoding": "mapping",
						"key": "t_uint256",
						"label": "mapping(uint256 => struct MyContract.Book)",
						"numberOfBytes": "32",
						"value": "t_struct(Book)22_storage"
					},
					"t_string_storage": {
						"encoding": "bytes",
						"label": "string",
						"numberOfBytes": "32"
					},
					"t_struct(Book)22_storage": {
						"encoding": "inplace",
						"label": "struct MyContract.Book",
						"members": [
							{
								"astId": 19,
								"contract": "MyContract.sol:MyContract",
								"label": "title",
								"offset": 0,
								"slot": "0",
								"type": "t_string_storage"
							},
							{
								"astId": 21,
								"contract": "MyContract.sol:MyContract",
								"label": "author",
								"offset": 0,
								"slot": "1",
								"type": "t_string_storage"
							}
						],
						"numberOfBytes": "64"
					},
					"t_uint256": {
						"encoding": "inplace",
						"label": "uint256",
						"numberOfBytes": "32"
					}
				}
			},
			"userdoc": {
				"kind": "user",
				"methods": {},
				"version": 1
			}
		}
	}
}